{
  "transactions": [
    {
      "hash": "0x0ba2f97f5105961648091481c48db704d1be73ae70dcbda1450254347e175d2b",
      "transactionType": "CALL",
      "contractName": null,
      "contractAddress": "0x68607f1d532761c28bf2cf0c2830a4c1d6ab9273",
      "function": "withdraw(uint256)",
      "arguments": [
        "500"
      ],
      "transaction": {
        "from": "0x1fd549e0157299d97dedd9c283ec9c608c14c46e",
        "to": "0x68607f1d532761c28bf2cf0c2830a4c1d6ab9273",
        "gas": "0xf0ff",
        "value": "0x0",
        "input": "0x2e1a7d4d00000000000000000000000000000000000000000000000000000000000001f4",
        "nonce": "0x2",
        "chainId": "0xaa36a7"
      },
      "additionalContracts": [],
      "isFixedGasLimit": false
    }
  ],
  "receipts": [
    {
      "status": "0x1",
      "cumulativeGasUsed": "0x1382a72",
      "logs": [
        {
          "address": "0x68607f1d532761c28bf2cf0c2830a4c1d6ab9273",
          "topics": [
            "0xddf252ad1be2c89b69c2b068fc378daa952ba7f163c4a11628f55a4df523b3ef",
            "0x0000000000000000000000001fd549e0157299d97dedd9c283ec9c608c14c46e",
            "0x0000000000000000000000000000000000000000000000000000000000000000"
          ],
          "data": "0x00000000000000000000000000000000000000000000000000000000000001f4",
          "blockHash": "0xb47b3c0e62d00eb7a5723e7cafd29b4227282cedc79adeb4a12570eaca7f96bf",
          "blockNumber": "0x6f0e6a",
          "transactionHash": "0x0ba2f97f5105961648091481c48db704d1be73ae70dcbda1450254347e175d2b",
          "transactionIndex": "0x56",
          "logIndex": "0x18f",
          "removed": false
        },
        {
          "address": "0x68607f1d532761c28bf2cf0c2830a4c1d6ab9273",
          "topics": [
            "0x7fcf532c15f0a6db0bd6d0e038bea71d30d808c7d98cb3bf7268a95bf5081b65",
            "0x0000000000000000000000001fd549e0157299d97dedd9c283ec9c608c14c46e"
          ],
          "data": "0x00000000000000000000000000000000000000000000000000000000000001f4",
          "blockHash": "0xb47b3c0e62d00eb7a5723e7cafd29b4227282cedc79adeb4a12570eaca7f96bf",
          "blockNumber": "0x6f0e6a",
          "transactionHash": "0x0ba2f97f5105961648091481c48db704d1be73ae70dcbda1450254347e175d2b",
          "transactionIndex": "0x56",
          "logIndex": "0x190",
          "removed": false
        }
      ],
      "logsBloom": "0x00000000000000000000000000000000000008000000000000000000000000000000000000000000000000000000000000000000000000000000000000000000000000000000000001000008000000000000000000400000000000000000000000000000020020000000000000000800000000000000040000000010000000000000000000000000000000000000000000000000000000000000000000000000000000000000000000002000000000000000000000000000000000000000000000000002000000000000000000000000000000010000000000000002000020000000000000000000000000000000000000000000000000000000000000000400",
      "type": "0x2",
      "transactionHash": "0x0ba2f97f5105961648091481c48db704d1be73ae70dcbda1450254347e175d2b",
      "transactionIndex": "0x56",
      "blockHash": "0xb47b3c0e62d00eb7a5723e7cafd29b4227282cedc79adeb4a12570eaca7f96bf",
      "blockNumber": "0x6f0e6a",
      "gasUsed": "0xa4c9",
      "effectiveGasPrice": "0x3fc01d912",
      "from": "0x1fd549e0157299d97dedd9c283ec9c608c14c46e",
      "to": "0x68607f1d532761c28bf2cf0c2830a4c1d6ab9273",
      "contractAddress": null
    }
  ],
  "libraries": [],
  "pending": [],
  "returns": {},
  "timestamp": 1734191822,
  "chain": 11155111,
  "commit": "331d83a"
}